:060000000A128A110C280F
:10000800FE00030EF0000A08F1000A128A11E72B1D
:100018000A128A110F2883133A30FD000430FE00BB
:100028003B30FF00303084000A128A1100240A1283
:100038008A11BA01BB01BC01BD01BE01BF01C001EB
:10004800FA01FB0183010A128A110A2A8312031397
:10005800081408110A128A11D0230A128A1183126D
:100068000313AC01AD01823083120313A500DD3008
:10007800A400A40B3D28A50B3D28831203132D08CB
:10008800F3002C08F2001830F400FC30F5000A12D6
:100098008A118B230A128A117208283E83120313CD
:1000A800A00073080318013E233EA1000A128A111A
:1000B8008E210A128A118312031340080319652836
:1000C80066286828C00103290130AC070318AD0A67
:1000D8000030AD0700302D025A3003192C02031CE2
:1000E800762877283728081D7A287B287F28081142
:1000F800881408128228881208168810A601A701F9
:10010800823083120313A500DD30A400A40B8A28D3
:10011800A50B8A28831203134008031994289528ED
:10012800962866280130A6070318A70A0030A707F3
:1001380000302702143003192602031CA428A5281E
:10014800842888100812081008150A128A11D0236A
:100158000A128A1183120313A801A901823083129B
:100168000313A500DD30A400A40BB828A50BB828FC
:100178008312031340080319C228C328C428662819
:100188000130A8070318A90A0030A907003029027E
:10019800463003192802031CD228D328B228081D88
:1001A800D628D728DB28081188140812DE288812D8
:1001B80008168810AA01AB01823083120313A50028
:1001C800DD30A400A40BE628A50BE6288312031350
:1001D80040080319F028F128F22866280130AA07F8
:1001E8000318AB0A0030AB0700302B021430031998
:1001F8002A02031C00290129E02888100812080097
:1002080083120313061A09290A293C29081D0D29F6
:100218000E2912290811881408121529881208169F
:100228008810F401F5018230F300DD30F200F20BA2
:100238001B29F30B1B2920298312031340080319D8
:10024800262927292929C0018D290130F4070318F7
:10025800F50A0030F50700307502143003197402EE
:10026800031C37293829172988100812FB0171291E
:10027800861A3F2940297129081D432944294829FC
:100288000811881408124B29881208168810F601DC
:10029800F7018230F300DD30F200F20B5129F30B45
:1002A8005129562983120313400803195C295D2933
:1002B8005E2927290130F6070318F70A0030F707E7
:1002C80000307702143003197602031C6C296D295B
:1002D8004D29881008120130FB007B08031D752981
:1002E800762979290810081580297B03031D7D29A3
:1002F8007E298029081408110A128A11D0230A12AB
:100308008A1183120313400803198B298C298D291C
:10031800272908000A30F2000030F3008312031383
:100328002108F5002008F4000A128A1170220A1226
:100338008A11730883120313A1007208A0000A30FF
:10034800F2000030F3002108F5002008F4000A123A
:100358008A1170220A128A11730883120313BD00CE
:100368007208BC000A30F2000030F3002108F500E2
:100378002008F4000A128A11D3220A128A1173087B
:1003880083120313BB007208BA003C08303E840095
:1003980083130008A200A3012208F3002308F40035
:1003A8000A128A112A230A128A11831203130817C0
:1003B8000D3083120313A300FB30A200A20BE22925
:1003C800A30BE2298312031308133A08303E840072
:1003D80083130008A200A3012208F3002308F400F5
:1003E8000A128A112A230A128A1183120313881700
:1003F8000D3083120313A300FB30A200A20B022AC4
:10040800A30B022A8312031388130800831603130D
:1004180088018312031388010810881108118812B3
:100428008810081283160313870183120313081315
:1004380088130A128A11B0230A128A110330F200B3
:100448000030F3007A0883120313AE00AF012E08C0
:10045800F4002F08F5000A128A11D3220A128A1111
:1004680072087304031D392A3A2A432A8312031394
:1004780009140A128A112A200A128A11222A033020
:10048800F2000030F3007A0883120313AE00AF01C4
:100498002E08F4002F08F5000A128A11D3220A1236
:1004A8008A1172037304031D5A2A5B2A642A831271
:1004B800031309100A128A1161230A128A11222AC7
:1004C8008312031309140A128A1104210A128A11C9
:1004D800222A0A128A110C28F701F31F742A752A96
:1004E8007C2AF209F309F20A0319F30A0130F7002A
:1004F800F51F7F2A802A872AF409F509F40A0319C7
:10050800F50A0130F706F801F901720873040319B6
:100518008E2A8F2AC42A0130F6009B2A0130031044
:10052800F20DF30DFF3E031D932A0130F607F31F6A
:100538009E2A9F2A922A01300310F80DF90DFF3EDA
:10054800031DA02A73087502031DAC2A72087402E1
:10055800031CAF2AB02AB72A7208F4027308031CD6
:10056800F503F502781401300310F30CF20CFF3E8A
:10057800031DB82A0130F602031DC32AC42A9F2A84
:1005880077080319C82AC92ACE2AF809F909F80AE6
:100598000319F90A7908F3007808F2000800F7014E
:1005A800F51FD72AD82ADF2AF409F509F40A03190E
:1005B800F50A0130F700F31FE22AE32AE82AF209D4
:1005C800F309F20A0319F30A720873040319ED2AEE
:1005D800EE2A1B2B0130F600FA2A01300310F20D27
:1005E800F30DFF3E031DF22A0130F607F31FFD2A23
:1005F800FE2AF12A73087502031D042B720874027F
:10060800031C072B082B0E2B7208F4027308031C1B
:10061800F503F50201300310F30CF20CFF3E031D45
:100628000F2B0130F602031D1A2B1B2BFE2A77080D
:1006380003191F2B202B252BF409F509F40A03199C
:10064800F50A7508F3007408F2000800F801F901CA
:100658007408F6007308F500780A352B0310F60CB9
:10066800F50CFF3E031D322B75080139F700F70D15
:100678008312031307087706FD39770687000A12E5
:100688008A110F240A128A110130F8070318F90A8F
:100698000030F9077908803AFF0080307F02031D97
:1006A800572B08307802031C5A2B5B2B2C2B0A1271
:1006B8008A112F240A128A110800023083120313A8
:1006C800880610308806F401F5018230F300DD3029
:1006D800F200F20B6D2BF30B6D2B722B83120313AD
:1006E80040080319782B792B7B2BC0018A2B01300A
:1006F800F4070318F50A0030F507003075020A30D0
:1007080003197402031C892B8A2B692B0800F60134
:10071800F701721C902B912B972B7408F60703187E
:10072800F70A7508F70701300310F40DF50DFF3EC1
:10073800031D982B01300310F30CF20CFF3E031D30
:100748009F2B72087304031DAA2BAB2B8D2B7708E4
:10075800F3007608F2000800831603178901313088
:10076800831603138600831203138601831603136B
:1007780089018312031389018316031387018312E6
:100788000313870183160313811315141516951681
:100798008B170B1601170800831203130819D52BA2
:1007A800D92B831203138815DC2B831203138811AA
:1007B8000818DF2BE32B831203138816E62B83120A
:1007C8000313881208008B1CEA2BEB2BF22B8B10DF
:1007D8000130FA07013083120313C0008312031398
:1007E800880171088A00700E8300FE0E7E0E0900D3
:1007F8007E088A007F0882000A128A11FC230A12E6
:100808008A118000840A04087D0603190034FF0A4F
:100818000319FE0A002C831203130714A630F200F2
:10082800F20B142C0000831203130710A630F200F9
:10083800F20B1C2C0000080004308A000408840A0B
:1008480082070034D034073458341B342834233416
:10085800253464340034831203130715A630F200DC
:10086800F20B342C00008312031307110800C03464
:10087800F934A434B034993492348234F83480345E
:020888009034AA
:04400E00D730FF3F69
:00000001FF
