:060000000A128A11EC2F28
:100C0A00C034F934A434B034993492348234F83488
:100C1A00803490348312031307155330F000F00B1D
:100C2A00142E8312031307110800831203130714E7
:100C3A005330F000F00B1F2E8312031307105330AA
:100C4A00F000F00B262E08007E088A007F0882003A
:100C5A000A128A1129260A128A118000840A0408B3
:100C6A007D0603190034FF0A0319FE0A2D2EF60128
:100C7A00F7017208F4007108F300760A472E031090
:100C8A00F40CF30CFF3E031D442E73080139F500E2
:100C9A00F50D8312031307087506FD3975068700DB
:100CAA000A128A111A260A128A110130F607031843
:100CBA00F70A0030F7077708803AFF0080307F0292
:100CCA00031D692E08307602031C6C2E6D2E3E2EF3
:100CDA000A128A110F260A128A1108007708780464
:100CEA000319782E792EA62E0130FB00852E0130AD
:100CFA000310F70DF80DFF3E031D7D2E0130FB0793
:100D0A00F81F882E892E7C2E78087A02031D8F2ED2
:100D1A0077087902031C922E932E992E7708F902EE
:100D2A007808031CFA03FA0201300310F80CF70CD6
:100D3A00FF3E031D9A2E0130FB02031DA52EA62E8F
:100D4A00892E7A08F8007908F7000800F401F501FD
:100D5A00700871040319B22EB32EE82E0130F60082
:100D6A00BF2E01300310F00DF10DFF3E031DB72E0B
:100D7A000130F607F11FC22EC32EB62E0130031022
:100D8A00F40DF50DFF3E031DC42E71087302031DF9
:100D9A00D02E70087202031CD32ED42EDB2E7008BC
:100DAA00F2027108031CF303F302741401300310F6
:100DBA00F10CF00CFF3E031DDC2E0130F602031D80
:100DCA00E72EE82EC32E7508F1007408F00008001B
:100DDA008316031307108710071186018312031362
:100DEA000610861006118611E830F0000330F10073
:100DFA003308F3003208F2000A128A11AB260A12EB
:100E0A008A11710883120313B1007008B0000A3006
:100E1A00F7000030F8006430F0000030F1003308C9
:100E2A00F3003208F2000A128A11AB260A128A115A
:100E3A007108FA007008F9000A128A1173260A1258
:100E4A008A11780883120313AF007708AE000A30BC
:100E5A00F7000030F8000A30F0000030F1003308E3
:100E6A00F3003208F2000A128A11AB260A128A111A
:100E7A007108FA007008F9000A128A1173260A1218
:100E8A008A11780883120313AD007708AC000A3080
:100E9A00F7000030F8003308FA003208F9000A12A5
:100EAA008A1173260A128A11780883120313AB0077
:100EBA007708AA003008203E840083130008FC004B
:100ECA00FD017C08F1007D08F2000A128A113C2615
:100EDA000A128A118312031306140730FD007D30AB
:100EEA00FC00FC0B762FFD0B762F831203130610E2
:100EFA002E08203E840083130008FC00FD017C08B4
:100F0A00F1007D08F2000A128A113C260A128A119F
:100F1A008312031386140730FD007D30FC00FC0B9E
:100F2A00942FFD0B942F8312031386102C08203E56
:100F3A00840083130008FC00FD017C08F1007D0891
:100F4A00F2000A128A113C260A128A11831203132A
:100F5A0006150730FD007D30FC00FC0BB22FFD0B9F
:100F6A00B22F8312031306112A08203E840083132A
:100F7A000008FC00FD017C08F1007D08F2000A125D
:100F8A008A113C260A128A11831203138615073026
:100F9A00FD007D30FC00FC0BD02FFD0BD02F8312FF
:100FAA0003138611273033020F3003193202031C50
:100FBA00DF2FE02FE22FB201B3010130B20703188D
:100FCA00B30A0030B307F92E0A128A1100288313D4
:100FDA002A30FD000630FE000530FF002030840074
:100FEA000A128A112D260A128A11B201B30183014B
:060FFA000A128A11ED2E1F
:04400E00F23CFF3F42
:00000001FF
